:020000040800F2
:10000000E0C2012089020008B1120008291000088E
:100010002D100008B9070008F72C000800000000A8
:10002000000000000000000000000000B9250008EA
:10003000370F0008000000004B1A0008D126000806
:10004000A3020008A3020008A3020008A3020008FC
:10005000A3020008A3020008A3020008A3020008EC
:10006000A3020008A3020008A3020008A3020008DC
:10007000A3020008A3020008A3020008A3020008CC
:10008000A3020008A3020008A3020008A3020008BC
:10009000A3020008A3020008A3020008A3020008AC
:1000A000A3020008A3020008A3020008A30200089C
:1000B000A3020008A30200087D280008A30200088C
:1000C000A3020008A3020008A3020008A30200087C
:1000D000A3020008B92A0008A3020008A30200082E
:1000E000A3020008A3020008A3020008A30200085C
:1000F000A3020008A3020008A3020008A30200084C
:10010000A3020008A3020008A3020008A30200083B
:10011000A3020008A3020008A3020008A30200082B
:10012000A30200084D0C0008A3020008A302000867
:10013000A3020008A3020008A3020008A30200080B
:10014000A3020008A3020008A3020008A3020008FB
:10015000A3020008A3020008A3020008A3020008EB
:10016000A3020008A3020008A3020008A3020008DB
:10017000A3020008A302000895090008A3020008D2
:10018000A3020008A302000800F002F800F06DF8D6
:100190000AA090E8000C82448344AAF10107DA45E2
:1001A00001D100F062F8AFF2090EBAE80F0013F0C7
:1001B000010F18BFFB1A43F001031847F085000038
:1001C000108600000A444FF0000C10F8013B13F0B9
:1001D000070408BF10F8014B1D1108BF10F8015BA0
:1001E000641E05D010F8016B641E01F8016BF9D193
:1001F00013F0080F1EBF10F8014BAD1C0C1B09D1EA
:100200006D1E58BF01F801CBFAD505E014F8016B5B
:1002100001F8016B6D1EF9D59142D6D370470000ED
:100220000023002400250026103A28BF78C1FBD8FF
:10023000520728BF30C148BF0B607047642900F0E7
:10024000B580752900F0B280782900F0EB80632931
:1002500000F05D82732900F06282002070471FB5B4
:1002600006F06BFC1FBD10B510BD00F073FA11460F
:10027000FFF7F5FF04F086FC00F091FA03B4FFF7F6
:10028000F2FF03BC02F0CFFE09488047094800474F
:10029000FEE7FEE7FEE7FEE7FEE7FEE7FEE7FEE736
:1002A000FEE7FEE704480549054A064B7047000093
:1002B000D526000889010008E0BC0120E0C2012029
:1002C000E0BE0120E0BE0120704700000FB40449E9
:1002D00010B503AA029800F027FA10BC5DF814FBD1
:1002E000280000200FB41CB5074B06AA7B446946C2
:1002F0000090059800F0E9F90020694600F0F8F94F
:100300001CBC5DF814FB00000104000070B504463D
:1003100085690068C10601D5302600E02026C007A7
:1003200007D070BDD4E9012130469047206A401CB7
:1003300020626D1EF6D570BD70B5044685690078E3
:10034000C00707D170BDD4E9012120209047206A61
:10035000401C20626D1EF6D570BD70B50C4605467A
:10036000012A05D02878800600D5EA69002302E03A
:10037000012305E05B1C934202D2E05C0028F9D126
:10038000A869E618C01AA861286A18442862284695
:10039000FFF7BCFF04E0D5E9012114F8010B9047F9
:1003A000B442F8D32846FFF7C7FF70BD2DE9F041EE
:1003B0000646002410687529314616A510D0AFF303
:1003C0000080002802DA404213A507E031688A075E
:1003D00001D512A502E0490704D511A5012401E0C9
:1003E000AFF3008000210A2206F1240709E0B0FBE8
:1003F000F2FCB0FBF2F302FB1C00303078541846DC
:10040000491C0028F3D123462A463046BDE8F04176
:1004100000F0FCB8000000002D0000002B000000E0
:100420002000000070B504460D4621461068AFF369
:1004300000802188090502D50F4A7A4402E00E4A5D
:100440007A440E32002104F1240305E000F00F0687
:100450000009965D5E54491C0028F7D120780023DE
:10046000000704D5702D02D009B1022311322046B5
:10047000BDE8704000F0CAB8328000002DE9F05F9E
:10048000894604464FF0000ADFF874B1FB44C0F817
:1004900020A02046E1688847002874D0252806D08F
:1004A000D4E901219047206A401C2062F1E7002630
:1004B0005F462046E16888472028054607DB312D46
:1004C00005D2781910F8200C08B10643F1E7B007FF
:1004D00001D526F00406C4F81CA00027C4F818A013
:1004E0002A2D09D0284602F097FD38B304EB87087F
:1004F000303DC8F8185019E059F8041B204604EBA9
:1005000087029161E1688847012F054618D1E069AB
:10051000002820DA26F020061DE0D8F8180000EBAD
:10052000800005EB40003038C8F818002046E1682C
:100530008847054602F070FD0028EED1012F0AD051
:100540002E2D08D12046E16888477F1C0546022FE2
:1005500046F02006C4DBA069002803DA404246F0DA
:100560000106A061F00701D026F010066C2D0BD01B
:10057000682D09D04C2D39D06A2D35D0742D35D049
:100580007A2D33D016E038E0E1682F4620468847C0
:10059000B842054609D16C2F26D04FF48060E1683F
:1005A000064320468847054604E06C2F1AD04FF4D6
:1005B000807006430DB3A5F14100192802D82035FB
:1005C00046F400664A462946204626604E46FFF716
:1005D00035FE80B101280BD0F61D26F0070000F192
:1005E000080956E74020E4E78020D8E70020D6E756
:1005F00006F104094DE7284652E7206ABDE8F09F5E
:100600000880000070477047704770472DE9F04739
:100610000D4699469246044600F124080168880672
:1006200004D5E06921F01001216000E00120A8421A
:1006300001DD471B00E00027A1697A1902EB0900E0
:10064000081AA0612078C00602D42046FFF75EFE9B
:10065000002608E0D4E901211AF806009047206A34
:10066000401C761C20624E45F4DB2078C0060AD57B
:100670002046FFF74BFE06E0D4E9012130209047E9
:10068000206A401C2062381EA7F10107F4DC07E055
:10069000D4E9012118F805009047206A401C206227
:1006A000281EA5F10105F3DC2046FFF745FE207862
:1006B000000602D50220BDE8F0870120FBE700001C
:1006C00001694A1C02610878704700B58FB0CDE916
:1006D00001310021059105497944CDE90310114606
:1006E0006846FFF7CBFE0FB000BD0000E5FFFFFF3F
:1006F0000A6802F8010B0A60704710B5436913B12C
:10070000AFF3008001E0FFF728FE012010BD127852
:1007100000F124010A7000224A700122EDE71168FD
:100720004FF0FF32E9E70000074B70B50D467B4400
:10073000FFF7CBFF0446284600F008F810B14FF051
:10074000FF3070BD204670BDDB400000007B00F034
:1007500080007047754600F02BF8AE4605006946EC
:10076000534620F00700854618B020B5FFF79AFDE4
:10077000BDE820404FF000064FF000074FF00008A2
:100780004FF0000B21F00701AC46ACE8C009ACE823
:10079000C009ACE8C009ACE8C0098D46704710B587
:1007A0000446AFF300802046BDE81040FFF766BD69
:1007B0000048704780BC012000BFFEE71CB5012146
:1007C000282001F04FF91F20009000208DF8040030
:1007D00003208DF8050002208DF8070069460A48BD
:1007E00000F0AAFB4FF4E060009000208DF80400B8
:1007F00003208DF8050002208DF8070069460348A4
:1008000000F09AFB1CBD000000140240000C0240E6
:1008100070B504460E46154600F0A0F800200B49BE
:10082000088048818881B0010881600188800020AB
:100830004880E801C880084600F0DCF8012000F09C
:1008400007F8012000F01CF870BD00002402002011
:1008500030B10749096841F00101054A116005E01E
:100860000349096821F00101014A11607047000045
:100870000000055001494861704700000000055024
:1008800030B10749096841F48041054A116005E02B
:100890000349096821F48041014A11607047000052
:1008A000000005502DE9F04190B004460D46164673
:1008B0001F46DDF858800121880501F0D3F825484E
:1008C00000F000FA00BF234800F0B3FA0028FAD184
:1008D0004FF0007001902048029003940020049093
:1008E00005960690CDF81C804FF48050089009972B
:1008F00000110A9040020B9004200C9003200D90F0
:1009000000200E900F9001A9124800F0E1FAEDB11D
:100910000121104800F082FA4FF4002229460D48C8
:1009200000F002FB012210210A4800F0B3FA39203E
:100930008DF8000002208DF8010003208DF80200E0
:1009400001208DF80300684600F0B4FC10B0BDE84B
:10095000F08100002864024028000550002005496D
:100960000860C8601F20486100208861C861086273
:100970004862704700000550014600200022044BE9
:100980001B6903EA01020AB1012000E00020704760
:100990000000055010B50120FFF7EEFF012811D12E
:1009A00004F042F80120FFF765FF0748006808B926
:1009B000012000E000200449086004480078401C41
:1009C0000249087010BD0000A882424218000020B1
:1009D00029B1074AD2680243054BDA6006E0044AAF
:1009E000D268C3439BB21A40014BDA6070470000E3
:1009F0000000055000210E4A126844F201039A4398
:100A00000B4B1A601A46116840F6F2729143028845
:100A100043881A4383881A43C3881A4303891A43B5
:100A200043891A4383891A431143014A116070476D
:100A3000000005502DE9F04106460F4614461D46BC
:100A400000F01EF82B4622460021042000F0F6FE9E
:100A50000121044800F02AF90120FFF7F9FEBDE862
:100A6000F08100002864024010B50121034800F025
:100A70001DF90120FFF7ECFE10BD000028640240C4
:100A800010B50020FFF7E4FE00BF0548006800F045
:100A900001000028F9D10021024800F007F910BD3B
:100AA000000005502864024010B500241448006876
:100AB00020F440201249086008460068086004E0FD
:100AC000601CC4B2012002F077FD0E48006808B136
:100AD000642CF5DB642C01DB012010BD002404E054
:100AE000601CC4B2012002F067FD0648006808B926
:100AF000642CF5DB642C01DB0120EEE70020ECE741
:100B000000180240240243421CB50121402000F09D
:100B1000A9FF4FF40070009001208DF80400002020
:100B20008DF8060002208DF8050001208DF80700E1
:100B30006946044800F000FA00F068F8FFF7B4FFD7
:100B40001CBD00000018024010B5002404E0601C29
:100B5000C4B2012002F030FD0D48006808B1642CD9
:100B6000F5DB002404E0601CC4B2012002F024FD87
:100B70000748006808B9642CF5DB282002F01CFD4A
:100B80000348006808B1012010BD0020FCE7000008
:100B90002402434270B50024002506E06006040EDE
:100BA000FFF7D2FF0443681CC5B2082DF6DB2046D0
:100BB00070BD7CB505460E4600F028F8FFF774FFBF
:100BC000F8B9002405E0FFF7E5FF0DF80400601C0C
:100BD000C4B2052CF7DB9DF800009DF80110084415
:100BE0009DF8021008449DF8031008449DF8041075
:100BF000884208D19DF8000030709DF802002870EE
:100C000001E001207CBD0020FCE7000010B50C488D
:100C1000006820F440200A4908600846006840F453
:100C200080200860002007490860142002F0A8FC1A
:100C300001200549C1F8A4021E2002F0BDFC10BD30
:100C400000180240A40243420000434210B5074985
:100C5000074800F0FDF8012806D10449044800F0D7
:100C60000BF804480068804710BD00000008001021
:100C7000286402401C0000200246094B9A4201D21F
:100C8000084801E00648103801F000531BB1064B3C
:100C90000B40C36002E0044B0B40836070470000D0
:100CA00010640240006002407D0F7D0F21B1026898
:100CB00042F00102026003E0026822F001020260D9
:100CC00070470000016821F001010160002101600E
:100CD00041608160C1600161212141614A498842CE
:100CE00004D13D21484A103A91608CE046491831C0
:100CF000884205D14FF47461434A103A916082E012
:100D000041493031884205D14FF474113E4A103ABE
:100D1000916078E03C494831884205D14FF07461D8
:100D2000394A103A91606EE037496031884204D107
:100D30003649354A103AD16065E033497831884206
:100D400004D13349304A103AD1605CE02E499031E9
:100D5000884204D12F492C4A103AD16053E02A49E5
:100D6000A831884205D14FF03D51274A103AD16051
:100D700049E02949884204D13D21274A083A1160B7
:100D800041E025491831884205D14FF47461224A67
:100D9000083A116037E020493031884205D14FF4DC
:100DA00074111D4A083A11602DE01B4948318842F0
:100DB00005D14FF07461184A083A116023E01649D2
:100DC0006031884204D11149134A121F11601AE0A0
:100DD00011497831884204D10D490F4A121F116020
:100DE00011E00D499031884204D10A490A4A121F84
:100DF000116008E00849A831884204D14FF03D5104
:100E0000054A121F11607047106002403D0000202B
:100E1000400F002000003D201064024021B1026814
:100E200042F48022026003E0026822F48022026021
:100E30007047014600200A6802F001020AB1012051
:100E400000E0002070470146486880B2704700000B
:100E500030B503460A46002000240B4DAB4201D2B8
:100E60000A4901E00849103902F000550DB14C68FB
:100E700000E00C68064D2C4004EA02050DB101208B
:100E800000E0002030BD000010640240006002401D
:100E90007D0F7D0F10B501F080034BB122B1436986
:100EA00043F08003436103E0436923F0800343611F
:100EB00080290BD02AB1036801F01E04234303608C
:100EC00004E0036801F01E04A343036010BD0000AA
:100ED00010B500220268134B1A40CC680B682343FC
:100EE0004C6923438C692343CC6923430C6A234315
:100EF0004C6A23438C6A23434C6B23438C6B234300
:100F00001A430260426922F00702D1E90B342343FD
:100F10001A4342610B6943604B6883608B68C3600E
:100F200010BD00003F801CF00AB1016100E0C1600B
:100F30007047416070477047F0B50A4600210023B2
:100F4000002400BF3DE0012505FA01F3156805EA1C
:100F500003049C4234D105684F000326BE40B543CC
:100F6000056015794E00B540066835430560157972
:100F7000012D02D01579022D16D185684F00032668
:100F8000BE40B543856055794E00B540866835430F
:100F90008560456801268E40B54345604568967971
:100FA0008E40B6B235434560C5684F000326BE404B
:100FB000B543C560D5794E00B540C6683543C560B8
:100FC000491C1029BFD3F0BDF0B5002300244D0704
:100FD000ED0E02FA05F3CE1000F1200555F826506B
:100FE0004E07F70E0F26BE40B543CF1000F1200686
:100FF00046F82750CE1000F1200555F8265045EA56
:101000000304CE1000F1200545F82640F0BD02464D
:10101000002013690B400BB1012000E00020704755
:10102000418370470183704700BFFEE700BFFEE7C2
:1010300070B540210C48FFF7F5FF20210A48FFF763
:10104000EFFF02210848FFF7EDFF01210648FFF7F7
:10105000E7FFFA24FA252146044801F0B8FC2946A6
:10106000034801F0B4FC70BD00100240001C0040B9
:101070000020004070B501213D48FFF7C8FF01285E
:1010800020D181023B48FFF7C2FF01281AD120215D
:101090003948FFF7C7FF40213748FFF7C1FF01215B
:1010A0003548FFF7BFFF02213348FFF7B9FFFA24A5
:1010B000FA252146314801F08AFC2946304801F0E2
:1010C00086FC53E021E040212B48FFF7ABFF2021B5
:1010D0002948FFF7A5FF01212748FFF7A3FF0221B9
:1010E0002548FFF79DFF322432252146234801F091
:1010F0006EFC2946224801F06AFC4FF480611D48CD
:10110000FFF785FF012800D106E04FF48061194800
:10111000FFF77DFF0028D6D000BF20E0022116484F
:10112000FFF780FF01211448FFF77AFF20211248C2
:10113000FFF778FF40211048FFF772FF3224322575
:1011400021460E4801F043FC29460D4801F03FFCC2
:1011500001210748FFF75BFF012800D105E00121CD
:101160000348FFF754FF0028D8D000BF70BD00002F
:1011700000140240000C024000100240001C00401D
:10118000002000400EB50121172000F06BFC01216A
:10119000084600F077FC5020019002208DF80800EE
:1011A00000208DF80A0003208DF8090001208DF839
:1011B0000B0001A93948FFF7BFFEC020019001A92B
:1011C0003748FFF7B9FE4FF43C60019001A935485C
:1011D000FFF7B2FE6020019001A93348FFF7ACFE93
:1011E0000D2204212D48FFF7EFFE0D2206212B488A
:1011F000FFF7EAFE0D2207212948FFF7E5FE0D2241
:1012000006212848FFF7E0FE0D2207212548FFF7B9
:10121000DBFE0D2208212348FFF7D6FE0D2209210F
:101220002048FFF7D1FE0D220B211E48FFF7CCFE10
:101230000D2206211A48FFF7C7FE0D2205211A4884
:10124000FFF7C2FE0D2206211748FFF7BDFEFFF78C
:1012500085FB00201549088048818881088120206D
:101260008880002048808020C8800846FFF7C2FBA5
:1012700001210846FFF7ACFB0120FFF701FB4E20E0
:101280008DF8000002208DF801008DF80200012089
:101290008DF80300684600F00DF80EBD0000024016
:1012A0000004024000080240001002402402002016
:1012B0007047000070B5002100230F22C4781CB3D2
:1012C000174C246804F4E064C4F5E064C4F3072117
:1012D000C1F10404E3B20A4144789C40E1B284784D
:1012E000144021430C07210E0E4C057861550478FB
:1012F00004F01F050124AC4005786D11AD0005F127
:10130000E025C5F8004109E0047804F01F05012438
:10131000AC40054D0678761145F8264070BD0000BA
:101320000CED00E000E400E080E100E00249014350
:10133000024A1160704700000000FA050CED00E061
:1013400070B50446042C03DAC4F10400C5B201E010
:10135000201FC5B2032143F2122000F058FB2807DA
:10136000010E45F2875000F052FB042C05DA0921EA
:1013700045F2885000F04BFB04E0012145F2885013
:1013800000F045FB132143F2122000F040FBA321A3
:1013900043F2122000F03BFB70BD000070B5054623
:1013A000032143F2122000F032FB1C2145F2813070
:1013B00000F02DFB5A2145F2823000F028FB062177
:1013C00045F2833000F023FB00240CE005EB4502DE
:1013D000104B03EB4202115D45F28432A01800F07D
:1013E00016FB601CC4B2062CF0DB982145F28B3052
:1013F00000F00DFB012145F28A3000F008FB1321BB
:1014000043F2122000F003FBA32143F2122000F06C
:10141000FEFA70BD1280000870B504460025202633
:10142000072C1AD2DFE804F004080C191013160078
:1014300014200546064610E01820054606460CE036
:101440001C200546064608E01025242605E0182540
:10145000282602E01C252C2600BF00BF032143F2F2
:10146000122000F0D4FA294645F2855000F0CFFA58
:10147000314645F2865000F0CAFA132143F2122099
:1014800000F0C5FAA32143F2122000F0C0FA70BDAB
:1014900010B50446022143F2160000F0B8FA02210A
:1014A00043F21C0000F0B3FA2CB1022143F2190000
:1014B00000F0ADFA04E0002143F2190000F0A7FAB1
:1014C00010BD70B500250024012143F2230000F077
:1014D0009EFA082143F2220000F099FA00BF43F27D
:1014E000230000F0EBF90546601C84B2B4F57A7F66
:1014F00001DD022070BD052002F042F8002DEED182
:10150000012143F2230000F082FA042143F2220079
:1015100000F07DFA002400BF43F2230000F0CEF972
:101520000546601C84B2B4F57A7F01DD0220E1E754
:10153000052002F025F8002DEED10020DAE70000AA
:1015400070B54FF400458F2620214FF4405000F035
:101550005EFA002408E02748015D284600F057FAAB
:10156000681C85B2601C84B240F6ED708442F2D3F0
:10157000002143F2220000F04AFA002143F2230046
:1015800000F045FA002143F2240000F040FA002167
:1015900043F2250000F03BFA002143F2260000F060
:1015A00036FA002143F2270000F031FA002143F21D
:1015B000280000F02CFA7F2143F2290000F027FADE
:1015C00000214FF4405000F022FA002400BF43F203
:1015D000290000F073F90646052001F0D1FF601CD8
:1015E00084B2B4F57A7F01DD012070BD702EEED19A
:1015F0000020FAE7D86F000870B50025032143F2F8
:10160000220000F004FA11E0681C85B243F22900C0
:1016100000F054F90446102C00D108E0052001F038
:10162000AFFFB5F57A7F01DD012070BDECE700BFAB
:101630000020FAE72DE9F05F04460D4690469946F2
:1016400026462F4604EB0800401E1FFA80FA05EBE1
:101650000900401E1FFA80FB032143F2122000F014
:10166000D6F931124FF4605000F0D1F9F1B243F6DF
:10167000010000F0CCF9391243F6020000F0C7F97E
:10168000F9B243F6030000F0C2F94FEA2A2143F60B
:10169000040000F0BCF90AF0FF0143F6050000F079
:1016A000B6F94FEA2B2143F6060000F0B0F90BF033
:1016B000FF0143F6070000F0AAF9132143F21220BC
:1016C00000F0A5F9A32143F2122000F0A0F90020B8
:1016D000BDE8F09F7CB500240121402000F0C2F954
:1016E0004FF40240009001208DF8040000208DF896
:1016F000060002208DF8050001208DF807006946DC
:101700002C48FFF719FC00202B490860142001F039
:1017100037FF00202949C1F8A402052001F030FF5D
:10172000012025490860142001F02AFF00F090FAFA
:10173000052001F025FF43F20A0000F0BFF805463E
:101740004FF6FF7000EA052543F20B0000F0B6F8F3
:10175000054345F24060854205D0294618A0FEF7B2
:10176000B5FD01207CBD112143F2031000F04FF9BB
:10177000822143F2080000F04AF90A2001F000FF3C
:1017800000240AE0104A02EB840291780E4A32F8F3
:10179000240000F03CF9601C84B2CF2CF2D301206D
:1017A000FFF776FE322001F0EBFE0020FFF770FE1F
:1017B0000020D7E700180240BC0243420000434229
:1017C00049443A25640D0A009C6C000810B50024B9
:1017D00000BF0AE0064A02EB84029178044A32F81C
:1017E000240000F014F9601C84B2292CF2D310BD3F
:1017F000446B000870B50546032143F2122000F047
:1018000006F900240AE0C5EBC5020B4B1A44115D32
:1018100004F5505000F0FBF8601CC4B2072CF2DB5A
:10182000132143F2122000F0F2F8A32143F2122018
:1018300000F0EDF870BD0000EF7F00082DE9F041E9
:1018400004460D4616461F46032143F2122000F0BF
:10185000DEF8311243F6080000F0D9F8F1B243F691
:10186000090000F0D4F8391243F60A0000F0CFF86E
:10187000F9B243F60B0000F0CAF8211243F610004B
:1018800000F0C5F8E1B243F6110000F0C0F82912EB
:1018900043F6120000F0BBF8E9B243F6130000F083
:1018A000B6F8132143F2122000F0B1F8A32143F25D
:1018B000122000F0ACF80020BDE8F08170B50446BD
:1018C000002500F047FA782000F078FA201200F0A6
:1018D00075FAE0B200F072FA00F056FA00F03AFA47
:1018E000792000F06BFA00F0FDF9054600F0DAF916
:1018F00000F04AFA284670BD10B50446212C0ADAD9
:10190000652145F2083000F082F8214645F20230A8
:1019100000F07DF82CE0252145F2083000F077F842
:1019200008214FF4A64000F072F8302145F2013052
:1019300000F06DF8102145F2023000F068F8002147
:1019400045F2033000F063F8082145F2093000F059
:101950005EF8302145F20A3000F059F8042145F2D2
:101960000B3000F054F8062145F20C3000F04FF82F
:1019700010BD000010B50446032143F2122000F010
:1019800046F804EB4400144A115C4FF4AB4000F0FD
:101990003EF804EB4400104A1044417845F283506D
:1019A00000F035F804EB44000B4A1044817845F20E
:1019B000845000F02CF8082145F2030000F027F8CD
:1019C000132143F2122000F022F8A32143F2122047
:1019D00000F01DF810BD00003C80000810B5044662
:1019E0002CB9002145F23D0000F011F80EE0012C69
:1019F00005D1802145F23D0000F009F806E0022CF7
:101A000004D1822145F23D0000F001F810BD70B50F
:101A100004460D46002600F09DF9782000F0CEF92E
:101A200000B10126201200F0C9F900B10126E0B290
:101A300000F0C4F900B10126284600F0BFF900B15A
:101A4000012600F0A1F9304670BD704710B502467E
:101A5000012000E050430B1EA1F10104E1B2F9D1D5
:101A600010BD000029B1064A12680243044B1A60F7
:101A700004E0034A12688243014B1A607047000079
:101A80003038024029B1064A12680243044B1A60FA
:101A900004E0034A12688243014B1A607047000059
:101AA0003438024029B1064A12680243044B1A60D6
:101AB00004E0034A12688243014B1A607047000039
:101AC0004038024029B1064A12680243044B1A60AA
:101AD00004E0034A12688243014B1A607047000019
:101AE0002038024029B1064A12680243044B1A60AA
:101AF00004E0034A12688243014B1A6070470000F9
:101B00004438024029B1064A12680243044B1A6065
:101B100004E0034A12688243014B1A6070470000D8
:101B200024380240F0B500210022002402250026BE
:101B30000223324F3F6807F00C0121B1042905D080
:101B4000082937D105E02E4F076036E02D4F07609A
:101B500033E02A4F3F1F3F68C7F38056274F3F1F90
:101B60003F6807F03F036EB1264FB7FBF3F7DFF88E
:101B70008CC0ACF1040CDCF800C0CCF3881C07FB73
:101B80000CF40CE01E4FB7FBF3F7DFF870C0ACF1BC
:101B9000040CDCF800C0CCF3881C07FB0CF4174FD6
:101BA0003F1F3F68C7F301477F1C7D00B4FBF5F77B
:101BB000076002E0124F076000BF00BF0F4F3F6891
:101BC00007F0F0010909104F7A5C0768D7404760B9
:101BD0000A4F3F6807F4E051890A0B4F7A5C476867
:101BE000D7408760054F3F6807F46041490B064FB7
:101BF0007A5C4768D740C760F0BD000008380240F3
:101C00000024F40000127A002E0000201CB50121EF
:101C10001020FFF727FF6F20009001208DF80400AF
:101C200000208DF8060003208DF8050002208DF8B5
:101C3000070069460548FFF77FF904210348FFF7CD
:101C4000EFF908210148FFF7EBF91CBD0010024035
:101C50001CB501210820FFF705FFC02000900120DE
:101C60008DF8040000208DF8060002208DF8050094
:101C700001208DF8070069460948FFF75DF9C0218A
:101C80000748FFF7CFF90648006820F440400449B0
:101C900008600846006840F4804008601CBD0000F1
:101CA000000C024010B5022001F086FC01200B4917
:101CB00008600B49C1F89802022001F07DFC002069
:101CC0000649091F0860022001F076FC0020044943
:101CD000C1F89C02022001F06FFC10BD9C824142C1
:101CE0000080414270B500241748006820F440404D
:101CF00015490860084600680860082515E00220BC
:101D000001F05AFC0120114908606006040E1048D9
:101D1000D0F81C0208B1601CC4B2022001F04CFCD7
:101D200000200A490860681EC5B2002DE7DC06489D
:101D3000006820F44040044908600846006840F408
:101D400080400860204670BD000C024098824142ED
:101D50000080414210B50120094908600949C1F8D5
:101D60009802022001F028FC0020054908600220AA
:101D700001F022FC00200349C1F8980210BD0000C8
:101D80009C8241420080414210B500200949086010
:101D9000022001F011FC01200749C1F8980202203D
:101DA00001F00AFC012003490860022001F004FC54
:101DB00010BD00009C8241420080414270B5044643
:101DC00000261BE004F0800018B1012022490860C1
:101DD00002E00020204908606006040E022001F0A5
:101DE000EBFB01201C49091F0860022001F0E4FB05
:101DF00000201A49C1F89802701CC6B2082EE1DB17
:101E00001748006820F440401549086008460068FB
:101E10000860022001F0D0FB01200F49091F086073
:101E2000022001F0C9FB0D48D0F81C0208B10125C1
:101E300000E0002500200849091F086008480068E4
:101E400020F44040064908600846006840F480409D
:101E50000860284670BD00009C82414200804142DB
:101E6000000C024010B5012002490860FF2000F07C
:101E700055F910BDB082404270B505464FF6FF746B
:101E800001E0601E84B2FF2000F048F9A84201D0B2
:101E9000002CF6D10CB9FF2070BD0020FCE700003B
:101EA000F8B500F017F900F044F9002504E0FF2030
:101EB00000F034F9681C85B20A2DF8DB142600BF47
:101EC00095220021084600F072F90446012C04D046
:101ED000301EA6F101018EB2F2D1002051490870E6
:101EE000012C4AD187224FF4D571082000F05FF908
:101EF000012847D1002506E0FF2000F00FF90DF87A
:101F00000500681C85B2042DF6DB9DF8020001284F
:101F100079D19DF80300AA2875D14FF6FE7600BF4F
:101F200001220021372000F042F9012291072920E7
:101F300000F03DF9044624B1301EA6F101018EB235
:101F4000EED1002E5FD0012200213A2000F02FF9BF
:101F5000002858D1002506E0FF2000F0DFF80DF83A
:101F60000500681C85B2042DF6DB9DF8000000F02A
:101F7000400018B106202B49087044E0042029498C
:101F8000087040E001220021372000F010F9012202
:101F90000021292000F00BF90446012C17DC022057
:101FA000204908704FF6FE7600BF0122002137203D
:101FB00000F0FDF801220021292000F0F8F8044685
:101FC000BCB1301EA6F101018EB2EED111E00120AC
:101FD000144908704FF6FE7600BF0122002110461A
:101FE00000F0E5F8044624B1301EA6F101018EB2DE
:101FF000F3D12EB101225102102000F0D8F810B117
:10200000002008490870FFF72DFF00F08DF8054803
:10201000007808B10020F8BD0CB12046FBE7AA20EB
:10202000F9E70000220000202DE9F04106460F46A6
:10203000154619480078062800D07F02012D0CD1E2
:1020400001223946112000F0B2F80446FCB96902B9
:10205000304600F023F8044619E0012239461220E8
:1020600000F0A5F8044600BF4FF40071304600F0C0
:1020700015F8044606F50076681EC0B2051E01D0AC
:10208000002CF1D0012200210C2000F090F8FFF785
:10209000E9FE2046BDE8F0812200002070B504462C
:1020A0000D46FE20FFF7E8FE08B1012070BD04E0F8
:1020B000FF2000F019FA2070641C281EA5F1010110
:1020C0008DB2F5D1FF2000F029F8FF2000F026F8AE
:1020D0000020EBE71CB501210220FFF7E3FC4FF4E1
:1020E0008050009001208DF8040000208DF806003B
:1020F00003208DF8050069460648FEF71DFF4FF4E2
:1021000080510448FEF78EFF00F078F90120024963
:1021100008601CBD00040240B082404210B5044675
:10212000204600F0E1F910BD10B5002000F0F8F9EC
:1021300010BD10B5382000F0F3F910BD10B5002027
:102140000549086000F06FF808B9002010BDFFF7DE
:1021500089FE0120FAE70000B082404270B50646D1
:102160000D4600F060F808B1012070BD2846FFF769
:10217000D5FFFD2D19D0002404E0305D00F0B4F946
:10218000601C84B2B4F5007FF7DBFF20FFF7C6FFC9
:10219000FF20FFF7C3FFFF20FFF7C0FF044604F056
:1021A0001F00052801D00220DFE70020DDE72DE930
:1021B000F04105460C4617464FF00008FFF752FE67
:1021C000FFF7BCFF10B1FF20BDE8F08145F04000F3
:1021D000FFF7A4FF200EFFF7A1FFC4F30740FFF7AE
:1021E0009DFFC4F30720FFF799FFE0B2FFF796FFCA
:1021F0003846FFF793FF0C2D02D1FF20FFF78EFF2B
:102200004FF01F0800BFFF20FFF788FF064606F0CB
:10221000800030B1B8F10000A8F1010101F0FF0821
:10222000F1D13046D0E710B5002400BFFF20FFF702
:1022300075FFFF2801D1002010BD641C6FF07F40A6
:102240008442F3D30120F7E72DE9F04106460F461B
:10225000154620480078062800D07F02012D0CD1B9
:10226000012239461820FFF7A2FF04466CBBFE216D
:102270003046FFF773FF044627E016480078012830
:1022800009D0012200213720FFF791FF01222946C2
:102290001720FFF78CFF012239461920FFF787FF2F
:1022A000044694B900BFFC213046FFF757FF0446AF
:1022B00006F50076681EC0B2051E01D0002CF2D0D3
:1022C000FD210020FFF74AFF0446FFF7CBFD204623
:1022D000BDE8F0812200002000B587B0012108464A
:1022E000FFF7C0FB01210803FFF7FCFB3820059036
:1022F00002208DF8180000208DF81A0003208DF8B8
:10230000190001208DF81B0005A92248FEF714FED4
:10231000052203211F48FEF757FE052204211D4810
:10232000FEF752FE052211461A48FEF74DFE012126
:102330000803FFF7E7FB00214FF48050FFF7E2FBB3
:102340000020ADF800004FF48270ADF802000020CC
:10235000ADF804000220ADF806000120ADF8080039
:102360004002ADF80A003820ADF80C000020ADF8AE
:102370000E000720ADF810006946074800F0FEF88F
:102380000121054800F0E0F8FF2000F007F807B051
:1023900000BD0000000402400030014010B50446BA
:1023A00000BF02210A4800F0DBF80028F9D02146DE
:1023B000074800F0E1F800BF0121054800F0D0F81F
:1023C0000028F9D0024800F0D4F8C0B210BD0000D7
:1023D0000030014010B50446074800884FF6C77129
:1023E00008400549088008460088204308800121EC
:1023F000014800F0A9F810BD0030014000B587B0D9
:1024000001210620FFF72EFB01218803FFF74AFB7D
:102410000C20059002208DF8180000208DF81A007D
:1024200003208DF8190001208DF81B0005A92B4809
:10243000FEF782FD4FF48060059002208DF81800B1
:1024400000208DF81A0003208DF8190001208DF866
:102450001B0005A92248FEF76FFD05220A2120482E
:10246000FEF7B2FD052202211C48FEF7ADFD052254
:1024700003211A48FEF7A8FD01218803FFF722FB7C
:1024800000214FF48040FFF71DFB0020ADF8000055
:102490004FF48270ADF802000020ADF80400022075
:1024A000ADF806000120ADF808004002ADF80A00C2
:1024B0003820ADF80C000020ADF80E000720ADF874
:1024C00010006946074800F059F80121054800F05E
:1024D0003BF8FF2000F008F807B000BD00080240FC
:1024E000000402400038004010B5044600BF02213D
:1024F0000A4800F035F80028F9D02146074800F0D6
:102500003BF800BF0121054800F02AF80028F9D067
:10251000024800F02EF8C0B210BD000000380040A4
:1025200010B50446074800884FF6C77108400549B2
:10253000088008460088204308800121014800F0F7
:1025400003F810BD0038004021B1028842F040027B
:10255000028004E002884FF6BF731A400280704781
:102560000246002013890B400BB1012000E000203F
:1025700070470146888970478181704710B50022F5
:10258000028802F441520B884C8823438C882343F1
:10259000CC8823430C8923434C8923438C892343D0
:1025A000CC8923431A430280838B4FF2FF7423406C
:1025B00083830B8A038210BD704700000CB5002096
:1025C000019000903448006840F48030324908603F
:1025D00000BF3148006800F4003000900198401CB2
:1025E0000190009818B90198B0F5A04FF1D12A4890
:1025F000006800F4003010B10120009001E00020DC
:1026000000900098012846D123484030006840F0EF
:1026100080502149403108602048006840F4404023
:102620001E4908601C48083000681B4908310860D2
:102630000846006840F4004008600846006840F41E
:10264000A05008601648091F0860081F006840F085
:102650008070091F086000BF0F48006800F000701C
:102660000028F9D040F205700E4908600A48083089
:10267000006820F003000849083108600846006837
:1026800040F00200086000BF03480830006800F016
:102690000C000828F8D10CBD003802400070004042
:1026A00008544007003C0240042808D14FF0E021C4
:1026B000096941F004014FF0E022116107E04FF099
:1026C000E021096921F004014FF0E0221161704717
:1026D0007047000010B51548006840F470001349B9
:1026E00008601348006840F00100114908600020AC
:1026F0000F49083108600E4800680E4908400C492F
:1027000008600D48091D0860081F006820F480203B
:10271000091F0860002006490C310860FFF74EFFD2
:102720004FF0006001498039086010BD88ED00E07D
:1027300000380240FFFFF6FE1030002430B58BB0A9
:1027400004460D4601218020FFF7ACF9012120202D
:10275000FFF788F9092208211E48FEF735FC4FF4DF
:102760008070099002208DF8280003208DF8290040
:1027700000208DF82A0001208DF82B0009A91548AA
:10278000FEF7DAFBA8B2ADF818000020ADF81A0089
:102790000794ADF8200006A90F4800F01DF960204D
:1027A000ADF804000120ADF806000220ADF81000DD
:1027B00001A9094800F0C2F80821074800F0FCF818
:1027C0000121054800F076F80121034800F084F863
:1027D0000BB030BD00140240001C004030B58BB07F
:1027E00004460D4601210802FFF75CF90121084665
:1027F000FFF738F9092207211E48FEF7E5FB802084
:10280000099002208DF8280003208DF8290000206F
:102810008DF82A0001208DF82B0009A91548FEF734
:102820008BFBA8B2ADF818000020ADF81A00079491
:10283000ADF8200006A9104800F0CEF86020ADF8F1
:1028400004000120ADF806000220ADF8100001A937
:10285000094800F073F80821074800F0ADF801219D
:10286000054800F027F80121034800F035F80BB0C7
:1028700030BD0000000002400020004010B50121E2
:102880000A4800F041F801280AD10949086980473F
:102890000021064800F09DF86421044800F095F8F6
:1028A0000121024800F015F810BD000000080040AA
:1028B000F400002021B1028842F08002028004E08E
:1028C00002884FF67F731A4002807047CA43028223
:1028D0007047CA430282704721B1028842F0010268
:1028E000028004E002884FF6FE731A4002807047AF
:1028F0000146486A704702460020138A0B400BB11C
:10290000012000E00020704730B50246002000237F
:102910000024158A05EA0103958905EA010413B12B
:102920000CB1012000E0002030BD1AB183890B43B7
:10293000838102E083898B438381704770B50024D3
:1029400000220023058C4FF6FE7635400584028C6C
:102950008388048B4FF68F752C40B51E2C400D8854
:102960002C43751E2A408D892A434D882A43104DD9
:10297000A84202D00F4DA84213D14FF6F7752A4056
:10298000CD892A434FF6FB752A408D882A434FF69E
:10299000FF652B404FF6FF552B400D8A2B434D8A88
:1029A0002B43838004838D684563028470BD0000DF
:1029B00000000140000401400A460021018B4FF64F
:1029C000F7731940114301837047C1627047416337
:1029D000704741627047000000220288184B9842FD
:1029E0000ED0184B98420BD0B0F1804F08D0164B48
:1029F000984205D0154B984202D0154B984204D10D
:102A00004FF68F731A404B881A43124B984207D0E7
:102A1000114B984204D04FF6FF431A400B891A43DA
:102A200002804B68C3620B880385054B984202D035
:102A3000044B984201D18B7A03860123838270472D
:102A40000000014000040140000400400008004074
:102A5000000C004000100040001400407FB5044608
:102A60000D4601210420FFF71DF8ADF800500020AD
:102A7000ADF802000194ADF8080069460D48FFF773
:102A8000ABFF012211460B48FFF74FFF0121094818
:102A9000FFF722FF1E208DF80C0003208DF80D009B
:102AA0008DF80E0001208DF80F0003A8FEF702FC40
:102AB0007FBD00000008004010B540F225511D48C0
:102AC00000F057F810B31B4800F00CF9C4B21A48D4
:102AD000008800F40040C8B91748008800F480401E
:102AE00060B10A2C03D000201349088020E012486E
:102AF000008840F400401049088019E00D2C06D1F0
:102B00000D48008840F480400B49088010E00A48D6
:102B10000088C0F30D0009490C5407480088401C88
:102B20000549088008460088C72801DD0020088084
:102B300010BD0000001001402C00002032120020C7
:102B400021B1828942F40052828104E082894DF6EB
:102B5000FF731A408281704702460020B1F5007F62
:102B600000D100BF13880B400BB1012000E0002012
:102B7000704770B50246002400230025002040F66F
:102B80006A16B14200D100BFC1F3421501F01F0324
:102B9000012606FA03F3012D02D19689334006E09F
:102BA000022D02D1168A334001E0968A33400C127E
:102BB000012606FA04F41688344013B10CB1012042
:102BC00000E0002070BDF0B503460024002600257B
:102BD000002040F66A17B94200D100BF1846C1F381
:102BE000421401F01F06012707FA06F5012C01D156
:102BF0000C3004E0022C01D1103000E014301AB186
:102C000007682F43076002E00768AF430760F0BD25
:102C10002DE9FF4705460E460024A14600BFA04609
:102C2000B08900B100BF2C8A24F44054F0880443DA
:102C30002C82AC8941F20C608443B088318908430E
:102C4000718908430443AC81AC8A24F44074B08990
:102C50000443AC826846FEF765FF2048854202D0F7
:102C60001F48854202D1DDF80C9001E0DDF80890A4
:102C7000A88900F4004040B109EBC90000EB09103D
:102C800031684900B0FBF1F707E009EBC90000EB40
:102C9000091031688900B0FBF1F76420B7FBF0F050
:102CA00004012009642101FB1078A88900F4004088
:102CB00040B1322000EBC800B0FBF1F000F007009B
:102CC000044308E0322000EB08106421B0FBF1F06F
:102CD00000F00F0004432C81BDE8FF870010014085
:102CE0000014014001468888C0F308007047C1F312
:102CF00008028280704700BFFEE7000010B504465E
:102D0000214610A0FDF7E2FA240300F027F900F0B5
:102D1000BFF800200D4908602020FFF73FFBC4F3F7
:102D20000740FFF73BFBC4F30720FFF737FBE0B298
:102D3000FFF734FB01200649C1F8B80200F0A8F8FB
:102D400010BD000066653A25780D0A00B882404241
:102D5000008040421CB501210220FEF783FE0121C4
:102D60004020FEF77FFE4FF48040009001208DF858
:102D7000040000208DF8060003208DF805000120D6
:102D80008DF8070069460D48FEF7D6F880200090C0
:102D900069460B48FEF7D0F880210948FEF742F952
:102DA000012008490860FFF797FA0020FFF712FB9F
:102DB00000F034F8044908801CBD00000004024003
:102DC00000180240B8824042200000202DE9F04166
:102DD00006460C46174600200F4908600320FFF7FF
:102DE000DDFAC4F30740FFF7D9FAC4F30720FFF771
:102DF000D5FAE0B2FFF7D2FA002505E0FF20FFF791
:102E0000CDFA7055681C85B2BD42F7DB012002493E
:102E10000860BDE8F0810000B882404210B500248F
:102E200000200E4908609020FFF7B8FA0020FFF755
:102E3000B5FA0020FFF7B2FA0020FFF7AFFAFF2043
:102E4000FFF7ACFA44EA0024FF20FFF7A7FA044397
:102E500001200349C1F8B802204610BDB8824042A3
:102E60000080404210B5002400200749086005207A
:102E7000FFF794FAFF20FFF791FA04460120034977
:102E8000C1F8B802204610BDB882404200804042DE
:102E900010B500BFFFF7E6FF00F001000028F9D1F0
:102EA00010BD00002DE9F05F81460F461646DFF8A1
:102EB000A8B04FEA1738C7F30B0ACAF58054A642E8
:102EC00000DC344644E04FEA08314FF48052584663
:102ED000FFF77CFF002508E00AEB05001BF8000067
:102EE000FF2800D003E0681C85B2A542F4DB00BFD8
:102EF000A54216DA4046FFF701FF002507E019F862
:102F0000050005EB0A010BF80100681C85B2A5421B
:102F1000F5DB4FEA08314FF48052584600F02EF8A6
:102F200004E022463946484600F028F8A64200D17F
:102F30000FE008F101084FF0000AA1442744301BBC
:102F400086B2B6F5805F02DD4FF4805400E034466F
:102F5000B9E700BFBDE8F09F3202002010B50020A5
:102F6000044908600620FFF719FA01200249C1F858
:102F7000B80210BDB8824042008040422DE9F041C5
:102F800007460E461446F0B2C0F58075AC4200DC30
:102F9000254612E02A463146384600F013F8AC4286
:102FA00000D10BE02F442E44601B84B2B4F5807F27
:102FB00002DD4FF4807500E02546EBE700BFBDE879
:102FC000F08100002DE9F04106460C461746FFF758
:102FD000C5FF00200F4908600220FFF7DFF9C4F3A6
:102FE0000740FFF7DBF9C4F30720FFF7D7F9E0B29A
:102FF000FFF7D4F9002504E0705DFFF7CFF9681CF6
:1030000085B2BD42F8DB012002490860FFF740FFAE
:10301000BDE8F081B882404230380A2801D2012050
:10302000704700207047014600BF704770B50646E4
:10303000002510E02A460BA13046FDF753F9012286
:1030400031460D48006800F011FF0446042C00D101
:1030500005E0681C85B24FF6FF708542EADB00BFD1
:1030600070BD0000303A50484F544F2F504943250F
:103070003035642E6A706700F001002070B5044698
:103080000D4600202071401EE0622946204602F0D5
:103090002DF908B1032070BD94F82E1294F82F0278
:1030A00041EA00204AF65521884201D00220F2E789
:1030B00094F86900010694F8680041EA004194F828
:1030C000670041EA002094F86610084320F07F4032
:1030D0000D49884201D10020DDE794F88500010602
:1030E00094F8840041EA004194F8830041EA00200A
:1030F00094F88210084320F07F400349884201D1B0
:103100000020C8E70120C6E746415400024600E01F
:10311000521C107810B110788842F9D1107870479D
:1031200070B503460D46586A021D680A1E68B678D7
:10313000B0FBF6F400BF02CA09B9002070BD8C4292
:1031400000D202E0641A121DF5E700BF10682044A7
:10315000F4E70246891E5069801E884201D800208B
:1031600070479378906A01FB0300F9E72DE9F04777
:1031700005460C46207820F04000401E00EB800100
:1031800001EBC00600274FF0010800BF1A48C05DE0
:10319000205C1949C95D2144497840EA0129B8F108
:1031A000000F10D0484601F0C9F88046FF2E07D224
:1031B0003146761C35F8110001F0C0F8404508D0C2
:1031C0000020BDE8F0874FF6FF70814501D0002058
:1031D000F7E7781C07460D28D8D3207800F0400088
:1031E00038B1B8F1000F04D035F8160008B100204E
:1031F000E7E70120E5E70000528000082DE9F047ED
:1032000004468946B9F1000F06D1E76817B1606935
:10321000B84215D8012713E04946204601F068FB63
:103220000646022E02D20120BDE8F087701C08B9C4
:103230003046F9E76069B04201D93046F4E74F46BD
:103240003D4600BF6D1C6069A84204D80225BD42FE
:1032500001D90020E8E72946204601F049FB06464F
:1032600006B909E0701C08B1012E01D13046DBE738
:10327000BD42E7D10020D7E700BF6FF0704229467A
:10328000204602F0E5F98046B8F1000F08D1B9F107
:10329000000F05D02A464946204602F0D9F980465B
:1032A000B8F1000F0BD1E5602069401C78B12069AE
:1032B000401E2061607940F00100607107E0B8F1C4
:1032C000010F02D14FF0FF3000E0012005462846F3
:1032D000AAE700002DE9F34F83B081460498006807
:1032E000019002E00198401C0190019800782F287D
:1032F000F8D0019800785C28F4D0D9F81CA00025FB
:103300002F4600BF38467F1C01990C5C202C03DB44
:103310002F2C01D05C2C00D132E0FF2D03D30620EE
:1033200005B0BDE8F08FE4B2812C13DBE0B2FE28DB
:1033300010DC38467F1C01990E5C402E01DB7E2E8E
:1033400005DD802E01DBFE2E01DD0620E8E706EB21
:10335000042084B20121204600F096FF04460CB9F7
:103360000620DDE7802C06DA214671A0FFF7CEFEAD
:1033700008B10620D4E728466D1C2AF81040C1E7A2
:1033800000BF0198C11904980160202C01DA0420C3
:1033900000E00020804608E0681E3AF81040202C2B
:1033A00002D02E2C00D002E06D1E002DF4D100BF03
:1033B0000DB90620B4E700202AF815000B222021C1
:1033C000D9F8180001F088FF002700E07F1C3AF8C8
:1033D00017002028FAD03AF817002E28F6D00FB19F
:1033E00048F0030800E06D1E25B1681E3AF8100091
:1033F0002E28F8D10020064602904FF0080B00BF9F
:1034000038467F1C3AF8104004B963E0202C03D002
:103410002E2C04D1AF4202D048F00308F0E7029806
:10342000584501D2AF4214D1BBF10B0F02D148F085
:1034300003084FE0AF4201D048F00308AF4200D983
:1034400048E02F46082002904FF00B0BB006060E06
:10345000D6E7802C09DB204600F070FF00210090A9
:1034600000F012FF044648F00208FF2C11DDABF11A
:1034700001000299884204D848F00308CDF808B04A
:10348000BEE72212D9F818300298411C02911A5452
:1034900019E024B1214629A0FFF738FE18B15F24B6
:1034A00048F003080FE0412C04DB5A2C02DC46F004
:1034B000020608E0612C06DB7A2C04DC46F00106EB
:1034C000A4F1200084B2D9F818300298411C02916E
:1034D0001C5495E700BFD9F818000078E52803D1FF
:1034E0000520D9F818100870BBF1080F01D1B006FB
:1034F000060E06F00C000C2803D006F0030003288B
:1035000001D148F0020808F0020058B906F00300A3
:10351000012801D148F0100806F00C00042801D160
:1035200048F00808D9F8180080F80B800020F7E66A
:10353000222A3A3C3E3F7C7F000000002B2C3B3D82
:103540005B5D000010B504466FF00400FFF7ACF8B7
:10355000E11704EB5171C1F3C701074A117010461E
:10356000007800EB4001C1EBC0104FF6FF7101EA9B
:10357000C0000249088010BD240000202600002061
:1035800070B504464FF4077094FBF0F0C6B24FF4E8
:10359000077094FBF0F100FB114085B205E04FF499
:1035A000077000F02FF8701EC6B2002EF7D115B1CB
:1035B000284600F027F870BD0146114A12784A43A8
:1035C0004FF0E0235A6100229A611A46126942F0D4
:1035D00001021A6100BF4FF0E022106900F0010201
:1035E0001AB100F48032002AF5D04FF0E0221269BF
:1035F00022F001024FF0E0231A6100229A61704725
:10360000240000200146114A12884A434FF0E0236B
:103610005A6100229A611A46126942F001021A6147
:1036200000BF4FF0E022106900F001021AB100F46F
:103630008032002AF5D04FF0E022126922F0010218
:103640004FF0E0231A6100229A61704726000020A3
:1036500070B540211148FDF7E5FC20210F48FDF72A
:10366000DFFC01210D48FDF7DDFC02210B48FDF7D1
:10367000D7FC322432254FF49670FFF781FF02F019
:10368000C3F84FF49670FFF77BFF21460448FFF71D
:103690009EF929460348FFF79AF970BD00100240D1
:1036A000001C0040002000402DE9F04104460E4679
:1036B0000021204600F0B8F90546EDB9002700BF0B
:1036C0002169206801F012FE054605B113E060692A
:1036D0000078E52802D06069007820B9781C074698
:1036E000B04201D107E000270121204600F07FF819
:1036F0000546002DE4D000BF042D00D10725284643
:10370000BDE8F0812DE9F04704460021204600F095
:103710008BF9074617B13846BDE8F0874FF0FF092F
:10372000CA464FF6FF70208400BF2169206801F06F
:10373000DDFD074607B157E065692E780EB904270D
:1037400052E0E87A00F03F08E52E05D008F00800C6
:1037500040B1B8F10F0F05D04FF0FF094FF6FF70E1
:1037600020843AE0B8F10F0F1CD1E06978B306F07D
:10377000400030B195F80DA026F04006B146E08833
:1037800020844E450AD1687B504507D12946E0691F
:10379000FFF7ECFC10B1A9F1010000E0FF2000F000
:1037A000FF091AE0B9F1000F05D1284602F03EF8F2
:1037B000504500D118E0A069C07A00F0010038B986
:1037C0000B222846A16901F067FD08B90CE004E06E
:1037D0004FF0FF094FF6FF7020840021204600F0D3
:1037E00006F80746002FA0D000BF384694E72DE921
:1037F000F04104468846E088461CB0B208B1206912
:1038000010B90420BDE8F08106F00F0000286CD14B
:103810002069401C2061E06828B920680089B04216
:1038200063D80420EEE720688078401E00EA161076
:1038300000285AD1E168206801F05AF80546012DA8
:1038400001D80220DEE7681C08B90120DAE7206809
:103850004069A84243D8B8F1000F01D10420D1E754
:10386000E1682068FFF7CAFC05460DB90720C9E7E3
:10387000012D01D10220C5E7681C08B90120C1E76C
:10388000206802F047F808B10120BBE7216801F188
:1038900030004FF40072002101F01EFD294620681F
:1038A000FFF757FC2168C86200270EE0012021685D
:1038B0000871206802F02EF808B10120A2E7206804
:1038C000C06A401C2168C8627F1C20688078B842AA
:1038D000ECD82068C06AC01B2168C86200BFE560E0
:1038E00029462068FFF735FC2061E68020683030EB
:1038F00006F00F0100EB41106061002082E72DE926
:10390000FE4F0446D4F81880D4F81C900C2241468F
:10391000684601F0D4FC00BF9DF80B0000F00100E8
:1039200020B3002088F80B00E06101260CE033464C
:103930004A466946404600F077FF2046FFF7E2FE20
:10394000054605B102E0761C642EF0D300BF642E5C
:1039500002D10720BDE8FE8F042D01D02846F9E7EB
:103960009DF80B0088F80B00C4F81C909DF80B0024
:1039700000F0020060B1002600E0761C39F8160065
:103980000028FAD106F119000D21B0FBF1F700E093
:10399000012739462046FFF787FE054645BB781EBE
:1039A000071E25D0E088C11B204600F03DF80546E3
:1039B000F5B9A06901F03AFF824600BF216920688D
:1039C00001F094FC054605B111E0FAB25346616975
:1039D000E06900F093FE0120216808710021204673
:1039E000FFF705FF054615B9781E071EE6D100BF93
:1039F000C5B92169206801F079FC054695B92022F6
:103A00000021606901F068FC0B22D4E9050101F096
:103A100056FCA069C07A00F01800616908730120A3
:103A200021680871284695E72DE9F04104460E46C5
:103A3000E680A568012D03D020684069A84202D81D
:103A40000220BDE8F0812DB920680078032801D15B
:103A50002068456A45B920680089B04201D8022033
:103A6000EFE72068476A1EE0206880784FEA001878
:103A700012E02946206800F03BFF0546681C08B9A3
:103A80000120DEE7022D03D320684069A84201D857
:103A90000220D6E7A6EB08064645EAD2294620686A
:103AA000FFF757FB0746E5600FB90220C9E707EBB0
:103AB000161020612068303006F00F0100EB411035
:103AC00060610020BDE7000070B50446002514B118
:103AD000012C0BD103E0FEF7E3F9054608E0FFF700
:103AE00039F94FF4C0400549088001E0012500BFC5
:103AF00000BF0DB1012070BD0020FCE7E8010020EF
:103B000010B50346ABB931B101290DD0022904D05B
:103B100003290BD106E000200AE04FF40074146082
:103B2000002005E0002003E0002001E0042000BFA9
:103B30001DE0012B1AD131B101290FD0022904D087
:103B4000032910D106E000200FE04FF40074148028
:103B500000200AE008241480002006E0044C248899
:103B60001460002001E0042000BF00E0012010BD2F
:103B7000E80100202DE9F04107460E4615461C4697
:103B80004FF0000814B90420BDE8F08117B1012FEF
:103B900022D112E0E2B229463046FEF745FA8046CD
:103BA00007E0FEF77DF9E2B229463046FEF73CFA1F
:103BB0008046B8F1000FF4D111E009E069024FF43A
:103BC00000723046FFF702F96D1C06F50076641EA0
:103BD000002CF3D1A04602E04FF0010800BF00BF67
:103BE000B8F1000F01D10020CEE70120CCE701465B
:103BF000002070472DE9F04107460E4615461C4649
:103C00004FF0000814B90420BDE8F08117B1012F6E
:103C100022D112E0E2B229463046FEF715FB80467B
:103C200007E0FEF73DF9E2B229463046FEF70CFB0D
:103C30008046B8F1000FF4D111E009E069024FF4B9
:103C400000723046FFF72EF96D1C06F50076641EF3
:103C5000002CF3D1A04602E04FF0010800BF00BFE6
:103C6000B8F1000F01D10020CEE70120CCE770B5FC
:103C70000546284600F0BAF9044644B9284602F041
:103C80003FFF04460CB900202860204670BD204646
:103C9000FCE72DE9F14F8CB000F09EFE06460122B4
:103CA0000CA903A800F066FB0546002D7BD14FF45C
:103CB000007000F035FB8046B8F1000F03D11120F1
:103CC0000DB0BDE8F08FCDF82880CDF824D003A842
:103CD0000C9900F053FD054605B9082500BF042DD9
:103CE0007AD100210398FFF789FA0746002507B922
:103CF0000725012F00D10225781C00B901251DB927
:103D0000039801F007FE0546002D5BD13946039864
:103D1000FFF71FFA8246039800F130044FF4007257
:103D20000021204601F0D8FA0B222021204601F084
:103D3000D3FA2E2020701020E072A675310AE175AA
:103D4000310C2176310E61763946204601F054FD62
:103D50002022214604F1200001F0B1FA2E2084F83F
:103D60002100DDF814B003980078032804D10398EB
:103D7000406A584500D1AB46594604F1200001F095
:103D80003BFD039890F8029018E00398C0F82CA02F
:103D90000AF1010A012003990871039801F0BAFDA4
:103DA00005460DB10DE030E04FF4007200212046D1
:103DB00001F092FAA9F1010000F0FF09B9F1000F3A
:103DC000E3D100BF1DB903A8FFF799FD054625B152
:103DD0003946039801F0DAFC14E0089C1020E072E8
:103DE000A675310AE175310C2176310E61763946BE
:103DF000204601F001FD012003990871039801F0AC
:103E000025FD0546404600F092FA284658E7000096
:103E1000F7B582B016460398019001A800F0DEFDC8
:103E20000546002D02DA0B2005B0F0BD0E4850F813
:103E300025400CB100202070029810B1002002999A
:103E400008700949029841F82500029808B1012E2E
:103E500001D00020E8E7002203A902A800F08AFAB6
:103E600007463846E0E70000FC1200202DE9F7473E
:103E70008DB0054616461DB9092010B0BDE8F08783
:103E80000020286006F01F0626F001020EA904A8F3
:103E900000F070FA0746002F73D14FF4007000F065
:103EA0003FFA8146B9F1000F01D11120E5E7CDF8C5
:103EB0002C9001A80A9004A80E9900F05FFC074618
:103EC000099C0FB904B9062706F01C00002851D040
:103ED0004FB1042F03D104A8FFF711FD074646F0A8
:103EE0000806099C09E0E07A00F0110008B10727F4
:103EF00003E006F0040000B10827002F39D106F0D6
:103F00000800002835D000F067FD804684F80E8058
:103F10004FEA1821E1734FEA184121744FEA186102
:103F200061740020E072207700216177A177E1774A
:103F30002146049800F016FE82460021204601F03A
:103F40005BFC012004990871BAF1000F11D00498AC
:103F5000D0F82C805146049801F018FC074647B968
:103F6000AAF101000499C8604146049801F0BEF925
:103F700007460FE077B9E07A00F0100010B104278F
:103F800008E031E006F0020020B1E07A00F0010024
:103F900000B1072747B906F0080008B146F020062F
:103FA0000498C06AE8612C62484600F0C0F9DFB9A5
:103FB000AE710020E8712146049800F0D3FD28611D
:103FC000E07F0106A07F41EA0041607F41EA0020D6
:103FD000217F0843E8600020A860A8616862049817
:103FE00028602868C088A880384646E72DE9F04157
:103FF0000446204602F084FD0746002F4CD1A079EC
:1040000000F02000002847D0A07900F0400078B1EF
:1040100021684878012304F12801A269FFF7EAFD2D
:1040200010B10120BDE8F081A07920F04000A0711E
:10403000E169206801F05AF90746002F2CD1256A62
:10404000E87A40F02000E872207B2877A089010AF6
:104050006977E068010CA977E068010EE9772846E6
:10406000216901F0C9FB00F0B7FC0646AE75310AC4
:10407000E975310C2976310E69760020A87400218B
:10408000E974A07920F02000A07101202168087156
:10409000206801F0DBFB07463846C3E72DE9FF4FF8
:1040A00083B0044615469B46049801900020CBF847
:1040B0000000204602F024FD0290029818B10298F8
:1040C00007B0BDE8F08FE07908B1E079F8E7A079B2
:1040D00000F0020008B90720F2E7A0682844A168B0
:1040E000884200D20025BEE02089C0F308000028E5
:1040F0007DD120688078401EA16800EA512000F040
:10410000FF0ABAF1000F26D1A06838B9276997B91C
:1041100000212068FFF772F807460CE0606A28B1BA
:104120002046A168FEF7FCFF074604E061692068AD
:10413000FFF764F8074607B998E0012F02D1022083
:10414000E071BDE7781C10B90120E071B8E7676144
:10415000206900B92761A07900F0400078B121689A
:104160004878012304F12801A269FFF743FD10B14B
:104170000120E071A4E7A07920F04000A0716169FE
:104180002068FEF7E6FF064616B90220E07197E7C1
:1041900056444FEA5529B9F1000F2CD00AEB09001B
:1041A00021688978884203D920688078A0EB0A09C1
:1041B000216848784B4632460199FFF71BFD10B144
:1041C0000120E0717CE7A069801B48450ED2A06900
:1041D000801B019A02EB40214FF4007204F1280089
:1041E00001F06DF8A07920F04000A07100E016E029
:1041F0004FEA49282AE0A069B0420FD0D4E9020171
:1042000088420BD2216848780123324604F1280104
:10421000FFF7B0FC10B10120E07151E7A6612089E1
:10422000C0F30800C0F50078A84500D9A846218948
:10423000C1F3080204F1280150184246019901F027
:104240003EF8A07940F04000A07100BF01984044C2
:104250000190A0684044A060DBF800004044CBF827
:104260000000A5EB0805002D7FF43EAF00BFD4E9A8
:104270000201884201D9A068E060A07940F02000E6
:10428000A07100201CE700002DE9F84F0446884685
:104290004FF0000B802C01DAA1463BE0B8F1000F93
:1042A00005D01E48D0F805004FEA500B01E04FF052
:1042B000000B1A48D0F805004FEA500A0120C0EB65
:1042C0009A0A002710261CE0AAEB070007EB50050E
:1042D0001248D0F8010000EB850000EB0B0104222E
:1042E0006846FEF773FDBDF80000A04200D10AE069
:1042F000BDF80000A04201DA2F4600E0AA46701E79
:1043000086B2002EE0D100BF16B1BDF8020000E079
:10431000002081464846BDE8F88F00005813002071
:1043200010B504462146002001F0D8F810BD10B5A4
:1043300004462146002001F0BFF810BD02460021CE
:1043400000E0491C094830F8110020B1074830F856
:1043500011009042F5D1054830F8110018B1044819
:1043600030F8110070471046FCE700008C80000810
:104370006C8200082DE9F74F88B000210898016091
:10438000099800F02BFB07900798002803DA0B2010
:104390000BB0BDE8F08FD549079851F820400CB913
:1043A0000C20F5E708980460207878B16078FFF772
:1043B0001EFC804608F0010040B90A9820B108F0C0
:1043C000040008B10A20E3E70020E1E700202070A4
:1043D000079860706078FFF777FB804608F001006F
:1043E00008B10320D4E70A9820B108F0040008B10E
:1043F0000A20CDE7002739462046FEF73FFE054656
:10440000012D01D06DBB2CE0002614E004F5F771FE
:1044100001EB0610017951B1C17A0A06817A42EAAC
:104420000142417A42EA0121027A114300E000216F
:104430004DF82610761C042EE8D3002606B1761E11
:1044400000BF5DF8267027B139462046FEF716FEFC
:1044500000E0022005461DB1701C06460428F0D37A
:1044600000BF032D01D1012092E70DB10D208FE790
:104470003B20015D94F83C0041EA0020B0F5007F4C
:1044800001D00D2084E74620015D94F8470041EA01
:104490000029B9F1000F0ED194F85700010694F8E5
:1044A000560041EA004194F8550041EA002094F892
:1044B000541040EA0109C4F818904020005DE070F3
:1044C000E078012804D0E078022801D00D205FE7D1
:1044D000E07809FB00F93D20005DA070A07818B1DC
:1044E000A078411E084008B10D2051E74120015D30
:1044F00094F8420041EA00202081207A00F00F0069
:1045000008B10D2044E74320015D94F8440041EADE
:10451000002BBBF1000F0ED194F85300010694F864
:10452000520041EA004194F8510041EA002094F819
:10453000501040EA010B3E20015D94F83F0041EA33
:1045400000200490049808B90D2021E704984844FD
:10455000218900EB111006900698834501D20D20A9
:1045600016E70698ABEB0000A178B0FBF1FABAF1C0
:10457000000F01D10D200BE7012540F6F6708245B2
:1045800000D302254FF6F670824500D303250AF1C9
:1045900002006061E761049838442062069838445C
:1045A000A062032D16D1208908B10D20F0E694F801
:1045B0005F00010694F85E0041EA004194F85D0056
:1045C00041EA002094F85C10084360626069800052
:1045D000059014E0208908B90D20D9E6206A4844E6
:1045E0006062022D02D16069400007E0207D00F08A
:1045F0000100616901EB410100EB51000590A169E7
:10460000059800F2FF10B1EB502F01D20D20BFE64C
:104610004FF0FF302061E06080206071032D5AD19F
:1046200094F8601094F8610041EA0020012852D10A
:10463000791C204600F05AFEE8BB0020607194F817
:104640002E1294F82F0241EA00204AF655218842A2
:1046500041D13320005D01063220005D41EA004176
:104660003120005D41EA002094F8301008432049D1
:10467000884230D194F81702010694F8160241EAF4
:10468000004194F8150241EA002094F814120843FE
:10469000184988421FD194F81B02010694F81A02A7
:1046A00041EA004194F8190241EA002094F81812F6
:1046B0000843206100E00EE094F81F02010694F820
:1046C0001E0241EA004194F81D0241EA002094F8DC
:1046D0001C120843E060257007480088401C80B227
:1046E00005490880E080002052E60000FC1200200E
:1046F0005252614172724161EA010020F0B50446F4
:104700001D464D730F27CF7200270F738F76BC465F
:1047100081F81BC0571E07EB870C0CEBC706002760
:1047200038463B4600BF4FF6FF77B84203D03746C6
:10473000761C34F81700DFF840C01CF803C001F8FD
:104740000C000712DFF830C01CF803C08C448CF852
:10475000017008B94FF6FF705F1C3B460D2FE2D386
:104760004FF6FF77B84202D034F816700FB942F016
:1047700040020A70F0BD0000528000082DE9F341AC
:104780000446019800782F2803D0019800785C280F
:1047900002D10198401C01900020A060019800788F
:1047A000202807D200212046FFF73EF905460020C9
:1047B000606128E000BF01A92046FEF78BFD054699
:1047C00005B11FE02046FEF79DFF0546A069C67AA9
:1047D0003DB1042D04D100BF06F0040000B9052549
:1047E00010E006F0040000B10CE06769F87A00F010
:1047F000100008B9052505E03946206800F0B2F937
:10480000A060D8E700BF2846BDE8FC8100BF054A8C
:10481000128802F04002002AF9D0C2B2014B9A80FD
:1048200070470000001001402DE9FC4707468A460A
:1048300090461E460B225146384600F040FD052E9C
:1048400018D9304610E038F8021B00250AE00A4665
:1048500060F35F021046491000F480320AB1234A27
:1048600050406D1C102DF2D3B8F80020002AEAD178
:10487000064600BF072500BF06F00F0000F1300913
:10488000B9F1390F03DD09F1070000F0FF092846EF
:104890006D1E0DF800903609002EEDD17E200DF82A
:1048A000050000240BE0385D812807DB385DFE2819
:1048B00004DC681EA04200D106E0641C641CAC420B
:1048C00002D2385D2028EED100BF00BF082D04D2EF
:1048D00028466D1C1DF8001000E020212046641CB5
:1048E0003954082CF2D3BDE8FC87000021100100E8
:1048F0002DE9F04105460C46022C02D36869A0421E
:1049000002D80120BDE8F0812878012804D00228CF
:104910002CD003285AD13DE0274607EB5707286AD9
:1049200000EB5721284600F0E1FC00B150E0C7F34E
:10493000080105F1300010F801807F1C286A00EBA7
:104940005721284600F0D2FC00B141E0C7F308012E
:1049500005F13000405C48EA002804F0010010B185
:104960004FEA1810CEE7C8F30B00CBE7286A00EB3C
:104970001421284600F0BAFC00B129E040F2FF10F3
:1049800000EA440105F130000E183078717840EAF1
:104990000120B7E7286A00EBD411284600F0A6FCF6
:1049A00000B115E040F2FF1000EA840105F130008B
:1049B0000E18F0780006B17840EA0140717840EABC
:1049C00001203178084320F070409BE7012099E7EF
:1049D00000BF4FF0FF3095E70020704770B50246EA
:1049E0004FF0FF301568E5B1116800E0491C0D7803
:1049F000202D02D30D783A2DF8D10D783A2D0FD114
:104A0000146814F8015BA5F130030A2B07D28C421D
:104A100005D1032B03D218464D1C2946156070BDE5
:104A2000002000BFFBE7000070B52948007800288F
:104A30003BD100212748FCF739F900BF2548FCF796
:104A4000F8F90028FAD12348FCF7FDF9C0F5A05089
:104A500085B2214800682149096800EB81061D489C
:104A6000006800F4002060B1002407E01C480068E2
:104A700050F8240046F82400601C84B2AC42F5DBF8
:104A80000BE0002407E01748006850F8240046F8BF
:104A90002400601C84B2AC42F5DB10480068284456
:104AA0000E49086001200A49087009480078022868
:104AB0000DD14FF4A0510748FCF73BFA01210548FE
:104AC000FCF7F4F80020024908700449086070BD42
:104AD0000400002028640240100000200000002094
:104AE0000C00002008000020194A1268194B1B68AE
:104AF00002EB8301184A126802F400229AB10020E6
:104B000007E0164A126852F8202041F82020421C83
:104B100090B2B0F5A05FF4DB0E4A126802F5A05225
:104B20000C4B1A6012E0002007E00D4A126852F8A0
:104B3000202041F82020421C90B2B0F5A05FF4DBA9
:104B4000044A126802F5A052024B1A607047000036
:104B5000100000200000002028640240080000200F
:104B60000C00002010B502468C7ECB7E44EA032068
:104B70001378032B05D10C7D4B7D44EA032340EAD7
:104B8000034010BD2DE9FF5F012403267700A246F4
:104B90004FF4A060FCF7CAFBA820FEF7D3FC4FF44B
:104BA000E13000F0DDFE532140F2F310FDF7C6FDC9
:104BB000532140F2F310FDF711FEFDF727F8FBF744
:104BC000FDFD00F021FE41F28830FEF7D9FC012105
:104BD000FE48FCF71CFA01282CD10221FB48FCF707
:104BE00016FA012826D10421F848FCF710FA01280A
:104BF00020D10821F548FCF70AFA01281AD1102122
:104C0000F248FCF704FA012814D10102F048FCF73D
:104C1000FEF901280ED14102ED48FCF7F8F9012810
:104C200008D18102EA48FCF7F2F9012802D100F02C
:104C3000EBFD28E30120029000254FF0000BFBF76D
:104C400063FF06E0E3A0FBF741FB4FF4FA70FEF7C9
:104C500097FCFCF73FFD0028F4D1FDF721F930B1B6
:104C6000E1A0FBF733FB4FF4FA70FEF789FCE34950
:104C700001220868E2A1FFF7CBF880464146E1A097
:104C8000FBF724FBE3A0FBF721FBE9A0FBF71EFBEE
:104C9000ECA0FBF71BFBEFA0FEF7FBFF8046B8F193
:104CA000080F0DD0B8F1000F0AD0EDA0FBF70EFBF6
:104CB000C820FEF765FCEEA0FBF708FB0020029081
:104CC0004FF4A041002000F009FCEE4908604FF4C9
:104CD000A041002000F002FCEB4908604FF496214F
:104CE000012000F0FBFBE94908601E21002000F0D4
:104CF000F5FB814606E0E6A0FBF7E8FA4FF4FA7010
:104D0000FEF73EFCB9F1000FF5D0DE480068002840
:104D1000F1D0DD4800680028EDD0DC4800680028AC
:104D2000E9D0DFA0FBF7D2FAFCF750FDFCF708FC56
:104D30000020FCF75FFD0320FCF730FB0420FCF7AC
:104D4000FFFA0320FCF768FB2120FCF7D5FDFCF7F8
:104D5000B8FBFCF717FA95E2B44203DBB4422EDD50
:104D6000BC422CDA01219948FCF751F928B3022101
:104D70009648FCF74CF900B304219448FCF747F936
:104D8000D8B108219148FCF742F9B0B110218F4801
:104D9000FCF73DF988B14FF480718D48FCF737F985
:104DA00058B14FF400718A48FCF731F928B14FF43B
:104DB00080618748FCF72BF910B9FCF75BF9D5E067
:104DC00000F022FD40F6B830FEF7DAFB64209BFBD2
:104DD000F0F100FB11B0002857D1B54908606946D1
:104DE00001A8FBF7E6FE012521E0C5F10200C1B2F2
:104DF0000A20FCF72BFE9DF80410B1FBF0F00A210D
:104E0000B0FBF1F201FB12003030AA4948550846C8
:104E1000415DA948FDF76BFF00BF4021A648FDF7A3
:104E20009BFE0128F9D13220FEF7AAFB6D1C032D51
:104E3000DBD3032521E0C5F10400C1B20A20FCF751
:104E400005FE9DF80010B1FBF0F00A21B0FBF1F275
:104E500001FB12003030974948550846415D96489D
:104E6000FDF745FF00BF40219348FDF775FE01287F
:104E7000F9D13220FEF784FB6D1C052DDBD364A035
:104E8000FBF724FA00208D4908800A20FEF778FB02
:104E90000BF1010000F0FF0B0298A8B14846FEF7A5
:104EA000C5F8484600F038FB8046B8F1000F03D043
:104EB00083A0FBF70BFA0DE085A0FBF707FA494644
:104EC00086A0FBF703FA05E087A0FBF7FFF989A0AE
:104ED000FBF7FCF90A20FEF753FB0398401CC0B215
:104EE00003900398142809D1002003908648006895
:104EF00008B9012000E000208349086041F28830B1
:104F0000FEF73EFB00BFFCF7B5F801212F48FCF788
:104F10007EF8012829D102212C48FCF778F80128D5
:104F200023D104212948FCF772F801281DD108215A
:104F30002648FCF76CF8012817D110212348FCF70C
:104F400066F8012811D101022148FCF760F8012818
:104F50000BD141021E48FCF75AF8012805D1810205
:104F60001B48FCF754F80128CDD0641CB44201D092
:104F7000BC4229D101211548FCF749F818B3022198
:104F80001248FCF744F8F0B104211048FCF73FF850
:104F9000C8B108210D48FCF73AF8A0B110210B4820
:104FA000FCF735F878B14FF480710948FCF72FF819
:104FB00048B14FF400710648FCF729F818B14FF4D6
:104FC00080610348A2E0A4E0E0E000000014024099
:104FD000000C02404F563536343020496E6974203B
:104FE0006572726F720D0A00534420496E69742015
:104FF0006572726F72A3A10D0A00000008130020F1
:10500000303A0000665F6D6F756E74203D20256438
:105010000D0A00004578706C6F7265722053544D14
:1050200033324634BFAAB7A2B0E50D0A0000000033
:105030004F5635363430D5D5CFE0BBFACAB5D1E9B5
:105040000D0A00004B45595F55503AC5C4D5D50DE2
:105050000A000000303A2F50484F544F0000000023
:105060005344BFA8B4EDCEF321212121210D0A0024
:10507000C5C4D5D5B9A6C4DCBDABB2BBBFC9D3C30B
:10508000210D0A00080000200C0000201000002064
:10509000C4DAB4E6B7D6C5E4CAA7B0DC210D0A006D
:1050A0004F563536343020D5FDB3A30D0A0000002D
:1050B0001400002032120020001001402C000020BB
:1050C000D0B4C8EBCEC4BCFEB4EDCEF3210D0A00C3
:1050D000C5C4D5D5B3C9B9A6210D0A00B1A3B4E69C
:1050E000CEAA3A25730D0A005344BFA8B4EDCEF3FF
:1050F000210D0A00C5C4D5D5B9A6C4DCB2BBBFC951
:10510000D3C3210D0A000000A4824242FBF77FFFB7
:1051100010B9FBF7AFFF39E000F076FB40F6B8308E
:10512000FEF72EFA00BFFEF793FA01215848FBF76D
:105130006EFF012829D102215548FBF768FF01289D
:1051400023D104215248FBF762FF01281DD1082119
:105150004F48FBF75CFF012817D110214C48FBF7A3
:1051600056FF012811D101024A48FBF750FF0128E0
:105170000BD141024748FBF74AFF012805D18102C4
:105180004448FBF744FF0128CDD0641C781C8442BE
:1051900067D101213E48FBF73AFF28B302213C4882
:1051A000FBF735FF00B304213948FBF730FFD8B1D6
:1051B00008213748FBF72BFFB0B110213448FBF72B
:1051C00026FF88B14FF480713248FBF720FF58B1B9
:1051D0004FF400712F48FBF71AFF28B14FF480619C
:1051E0002C48FBF714FF10B9FBF744FF39E000F03F
:1051F0000BFB40F6B830FEF7C3F900BFFBF718FF12
:1052000001212348FBF703FF012829D1022120486F
:10521000FBF7FDFE012823D104211D48FBF7F7FE13
:1052200001281DD108211A48FBF7F1FE012817D1EA
:1052300010211748FBF7EBFE012811D10102154898
:10524000FBF7E5FE01280BD141021248FBF7DFFE18
:10525000012805D181020F48FBF7D9FE0128CDD0E6
:10526000641CB81C84420DD1BAF1010F08D1FBF7C0
:10527000DFFE4FF47A70FEF783F90AF1010A01E0CC
:1052800000F0C2FA68E5002004B0BDE8F09F00001D
:1052900000140240000C0240F0B503461C460D46C7
:1052A000002000BF161EA2F1010207D014F8017BF6
:1052B00015F801CBA7EB0C06301EF3D0F0BD70B58E
:1052C00003460C4603E014F8015B03F8015B151E6E
:1052D000A2F10102F7D170BD30B5034601E003F839
:1052E000011B141EA2F10102F9D130BD70B50446B4
:1052F0000D46E06AA84210D0204600F00BFB08B132
:10530000012070BD607801232A4604F13001FEF7C8
:1053100031FC08B10120F4E7E5620020F1E700006C
:105320002DE9F04104460E461548005D38B9144891
:1053300020380168204688470120BDE8F0811148E7
:1053400050F82400B04219D90F4850F82400B6FB99
:10535000F0F10B480C3850F8240030F811200025EB
:1053600008E0002306480C3850F824004F1920F8B4
:1053700017306D1C9542F4DB0020DEE70220DCE7ED
:1053800020020020648400085884000810B50446F8
:105390000C4951F824104A000B4951F8240000210F
:1053A00000F0B0F8094951F8242007490C3951F8A8
:1053B0002400002100F0A6F8012103480C3001551B
:1053C00010BD00004C840008140200206484000812
:1053D0002DE9F04704460F460025A9462348005D05
:1053E00020B9224820380168204688471FB94FF06D
:1053F000FF30BDE8F0871E4850F82400B7FBF0F6F8
:105400001B4850F82400B7FBF0F100FB117000B10D
:10541000761C184850F82400451E22E013480C382A
:1054200050F8240030F8150010B909F1010901E025
:105430004FF00009B14513D14FF0000809E00B48C7
:105440000C3850F8240005EB080220F8126008F12F
:105450000108B045F3D3064850F824006843C8E774
:105460006D1E002DDADA4FF0FF30C2E72002002077
:10547000588400084C84000810B50146002300221F
:1054800007E00B4850F8210030F8120000B15B1C17
:10549000521C084850F821009042F2D8642058432A
:1054A000044C54F82140B0FBF4F0C0B210BD000031
:1054B000140200204C84000870B505460C4604B95F
:1054C00070BD054850F82500261A31462846FFF7DA
:1054D00027FF00BFF4E700000802002070B5044673
:1054E0000E4631462046FFF773FF0546681C08B993
:1054F000002070BD024850F824002844F9E700005D
:105500000802002030B5034601E003F8011B141E19
:10551000A2F10102F9D130BD2DE9FC4107464FF05F
:1055200000084FF40A710020FFF7D8FF064616B9AD
:10553000FF20BDE8FC810020394908704FF48763E3
:105540004FF4B46200210846FCF778F93548364933
:1055500008604FF4806003014FF4A052009033487C
:10556000016833480068FBF79DF9FBF77DFA00BF3F
:105570002B4800780128FBD102202949087000BF80
:10558000274800780128FBD1FBF77AFA0622394632
:105590003046FEF76BFC8046B8F1000F34D1254849
:1055A0000068810024A0FAF791FE284805680024CD
:1055B00008E0285DFF2804D1601C285CD82800D1B1
:1055C00005E0641C1B480068B4EB800FF1D300BFFA
:1055D00018480068B4EB800F02D14FF0FD0813E0CB
:1055E000254414480068C4EB800201AB29463046CC
:1055F000FEF754FD80460F480068C4EB8000019917
:10560000884201D04FF0FE0800200A490860304669
:10561000FEF72DFB31460020FFF74EFF404688E79E
:1056200004000020E94A00081C0000200C000020B3
:1056300008000020000000206A7065672064617423
:10564000612073697A653A25640D0A001000002014
:105650002DE9F04705460E461746022E02D368692B
:10566000B04202D84FF002088AE02878012804D01E
:10567000022841D003287DD154E0B14609EB5909F5
:10568000286A00EB59212846FFF730FE8046B8F122
:10569000000F00D071E0C9F3080105F130000C18CB
:1056A00006F0010020B1F9B2207861F31F1000E08C
:1056B0003846207009F1010901202871286A00EBA1
:1056C00059212846FFF712FE8046B8F1000F00D09E
:1056D00053E0C9F3080105F130000C1806F0010091
:1056E00010B1C7F3071005E0207800F0F000C7F311
:1056F00003210843207040E0286A00EB1621284669
:10570000FFF7F4FD8046B8F1000F00D035E040F21D
:10571000FF1000EA460105F130000C182770380A26
:1057200060702AE0286A00EBD6112846FFF7DEFDFC
:105730008046B8F1000F00D01FE040F2FF1000EAF1
:10574000860105F130000C18E0780006A17840EAE7
:105750000140617840EA01202178084300F0704060
:1057600007432770380A6070380CA070380EE0705C
:1057700003E0FFE74FF0020800BF00BF01202871DF
:105780004046BDE8F0870146086870472DE9F041C2
:1057900004460E46022E02D36069B04201D80227A9
:1057A00027E0002721E031462046FFF7A1F8054613
:1057B00005B91DE0012D01D1022719E0681C08B9C7
:1057C000012715E0002231462046FFF741FF07463A
:1057D00007B10DE02069401C30B12069401C2061F8
:1057E000607940F0010060712E466069B042DAD8FD
:1057F00000BF3846BDE8F08181760B0AC3760A0CFB
:1058000002750B0E4375704770B54FF4FA74254658
:1058100021460448FDF7DBF829460348FDF7D7F891
:1058200070BD0000001C00400020004030B5014663
:1058300000200B2200BF431003EBC01411F8015BE2
:105840006319D8B2531E1A1EF5D130BD70B5044687
:10585000204600F05FF80546002D59D12078032836
:105860004FD1607901284CD14202002104F130006F
:10587000FFF732FD552184F82E12AA2184F82F1249
:10588000522084F83000522131200155612132200C
:105890000155412133200155722184F8141284F8F6
:1058A0001512412184F81612612184F81712217C07
:1058B00084F81812208A010A84F819122069010C50
:1058C00084F81A122069010E84F81B12217B84F8D7
:1058D0001C12A089010A84F81D12E068010C84F8EA
:1058E0001E12E068010E84F81F12E069401CE0629D
:1058F0006078012304F13001E26AFEF77BF90020B1
:105900006071607800221146FEF7FAF800B10125B7
:10591000284670BD70B504462079F8B1E56A607814
:1059200001232A4604F13001FEF764F908B1012091
:1059300070BD00202071206A281AA16988420DD20A
:10594000E67809E0A0690544607801232A4604F15D
:105950003001FEF74FF9761E022EF3D20020E7E762
:1059600010B588B0044601210846FCF77BF80121F8
:105970001020FCF7B7F8072209212248FBF724FB87
:1059800007220A211F48FBF71FFB4FF4C060069057
:1059900002208DF81C008DF81D0000208DF81E00DF
:1059A00001208DF81F0006A91648FBF7C5FA0294DE
:1059B0000020ADF80C00ADF80E00ADF81000ADF809
:1059C00014000C20ADF8120002A90F48FDF720F9D1
:1059D00001210D48FDF7B4F8012240F225510A4893
:1059E000FDF7F1F825208DF8040003208DF805005F
:1059F0008DF8060001208DF8070001A8FBF75AFC7E
:105A000008B010BD000002400010014030B595B054
:105A1000054613AB12AA09A9284600F039FA044634
:105A200014B1204615B030BD0020149026E0224964
:105A300009689DF8502001EBC20113AB11AA486818
:105A400001A900F025FA04460CB12046EAE709A9AD
:105A500001A800F0BBFC60B99DF844009DF8481017
:105A6000884201DD0220DDE79DF85000124988756B
:105A70000AE09DF85000401CC0B214900E48007D12
:105A80009DF850108842D2DC00BF0B48007D9DF885
:105A90005010884201D10420C4E714A9284600F020
:105AA000D7FA04460CB12046BCE79DF850000249E5
:105AB00048750020B6E70000F40000202DE9F04111
:105AC0009AB09C48847D007DA04202DC1AB0BDE8FB
:105AD000F0819849096801EBC40106AB07AA486840
